:020000040000fa
:080000000002040000000000f2
:020000040000fa
:040008009a03000057
:020000040000fa
:04000c009a03000053
:020000040000fa
:040010009a0300004f
:020000040000fa
:040014009a0300004b
:020000040000fa
:040018009a03000047
:020000040000fa
:04001c009a03000043
:020000040000fa
:040020009a0300003f
:020000040000fa
:040024009a0300003b
:020000040000fa
:040028009a03000037
:020000040000fa
:04002c009a03000033
:020000040000fa
:040030009a0300002f
:020000040000fa
:040034009a0300002b
:020000040000fa
:040038009a03000027
:020000040000fa
:04003c009a03000023
:020000040000fa
:040040009a0300001f
:020000040000fa
:040044009a0300001b
:020000040000fa
:04004800fa020000b8
:020000040000fa
:04004c009a03000013
:020000040000fa
:040050009a0300000f
:020000040000fa
:040054009a0300000b
:020000040000fa
:040058009a03000007
:020000040000fa
:04005c009a03000003
:020000040000fa
:040060009a030000ff
:020000040000fa
:040064009a030000fb
:020000040000fa
:040068009a030000f7
:020000040000fa
:04006c009a030000f3
:020000040000fa
:040070009a030000ef
:020000040000fa
:040074009a030000eb
:020000040000fa
:040078009a030000e7
:020000040000fa
:04007c009a030000e3
:020000040000fa
:040080009a030000df
:020000040000fa
:040084009a030000db
:020000040000fa
:040088009a030000d7
:020000040000fa
:04008c009a030000d3
:020000040000fa
:040090009a030000cf
:020000040000fa
:040094009a030000cb
:020000040000fa
:040098009a030000c7
:020000040000fa
:04009c009a030000c3
:020000040000fa
:0400a0009a030000bf
:020000040000fa
:0400a4009a030000bb
:020000040000fa
:0400a8009a030000b7
:020000040000fa
:0400ac009a030000b3
:020000040000fa
:0400b0009a030000af
:020000040000fa
:0400b4009a030000ab
:020000040000fa
:0400b8009a030000a7
:020000040000fa
:0400bc009a030000a3
:020000040000fa
:0400c0009a0300009f
:020000040000fa
:0400c4009a0300009b
:020000040000fa
:0400c8009a03000097
:020000040000fa
:0400cc009a03000093
:020000040000fa
:0400d0009a0300008f
:020000040000fa
:0400d4009a0300008b
:020000040000fa
:0400d8009a03000087
:020000040000fa
:0400dc009a03000083
:020000040000fa
:0400e0009a0300007f
:020000040000fa
:0400e4009a0300007b
:020000040000fa
:0400e8009a03000077
:020000040000fa
:0400ec009a03000073
:020000040000fa
:0400f0009a0300006f
:020000040000fa
:0400f4009a0300006b
:020000040000fa
:0400f8009a03000067
:020000040000fa
:0400fc009a03000063
:020000040000fa
:040100009a0300005e
:020000040000fa
:040104009a0300005a
:020000040000fa
:040108009a03000056
:020000040000fa
:04010c009a03000052
:020000040000fa
:040110009a0300004e
:020000040000fa
:040114009a0300004a
:020000040000fa
:040118009a03000046
:020000040000fa
:04011c009a03000042
:020000040000fa
:040120009a0300003e
:020000040000fa
:040124009a0300003a
:020000040000fa
:040128009a03000036
:020000040000fa
:04012c009a03000032
:020000040000fa
:040130009a0300002e
:020000040000fa
:040134009a0300002a
:020000040000fa
:040138009a03000026
:020000040000fa
:04013c009a03000022
:020000040000fa
:040140009a0300001e
:020000040000fa
:040144009a0300001a
:020000040000fa
:040148009a03000016
:020000040000fa
:04014c009a03000012
:020000040000fa
:040150009a0300000e
:020000040000fa
:040154009a0300000a
:020000040000fa
:040158009a03000006
:020000040000fa
:04015c009a03000002
:020000040000fa
:040160009a030000fe
:020000040000fa
:040164009a030000fa
:020000040000fa
:040168009a030000f6
:020000040000fa
:04016c009a030000f2
:020000040000fa
:040170009a030000ee
:020000040000fa
:040174009a030000ea
:020000040000fa
:040178009a030000e6
:020000040000fa
:04017c009a030000e2
:020000040000fa
:040180009a030000de
:020000040000fa
:040184009a030000da
:020000040000fa
:040188009a030000d6
:020000040000fa
:04018c009a030000d2
:020000040000fa
:040190009a030000ce
:020000040000fa
:040194009a030000ca
:020000040000fa
:040198009a030000c6
:020000040000fa
:04019c009a030000c2
:020000040000fa
:0401a0009a030000be
:020000040000fa
:0401a4009a030000ba
:020000040000fa
:0401a8009a030000b6
:020000040000fa
:0401ac009a030000b2
:020000040000fa
:0401b0009a030000ae
:020000040000fa
:0401b4009a030000aa
:020000040000fa
:0401b8009a030000a6
:020000040000fa
:0401bc009a030000a2
:020000040000fa
:0401c0009a0300009e
:020000040000fa
:0401c4009a0300009a
:020000040000fa
:0401c8009a03000096
:020000040000fa
:0401cc009a03000092
:020000040000fa
:0401d0009a0300008e
:020000040000fa
:0401d4009a0300008a
:020000040000fa
:0401d8009a03000086
:020000040000fa
:0401dc009a03000082
:020000040000fa
:0401e0009a0300007e
:020000040000fa
:0401e4009a0300007a
:020000040000fa
:0401e8009a03000076
:020000040000fa
:0401ec009a03000072
:020000040000fa
:0401f0009a0300006e
:020000040000fa
:0401f4009a0300006a
:020000040000fa
:0401f8009a03000066
:020000040000fa
:0401fc009a03000062
:020000040000fa
:040200009a0300005d
:020000040000fa
:040204009a03000059
:020000040000fa
:040208009a03000055
:020000040000fa
:04020c009a03000051
:020000040000fa
:040210009a0300004d
:020000040000fa
:040214009a03000049
:020000040000fa
:040218009a03000045
:020000040000fa
:04021c009a03000041
:020000040000fa
:040220009a0300003d
:020000040000fa
:040224009a03000039
:020000040000fa
:040228009a03000035
:020000040000fa
:04022c009a03000031
:020000040000fa
:040230009a0300002d
:020000040000fa
:040234009a03000029
:020000040000fa
:040238009a03000025
:020000040000fa
:04023c009a03000021
:020000040000fa
:040240009a0300001d
:020000040000fa
:040244009a03000019
:020000040000fa
:040248009a03000015
:020000040000fa
:04024c009a03000011
:020000040000fa
:040250009a0300000d
:020000040000fa
:040254009a03000009
:020000040000fa
:040258009a03000005
:020000040000fa
:04025c009a03000001
:020000040000fa
:040260009a030000fd
:020000040000fa
:040264009a030000f9
:020000040000fa
:100400004f0021000eff2d000e01880000000000ab
:10041000000020000000e000020032000001200087
:100420002002880014000700c40007000000e0005c
:1004300003003a008079200001002000020037000c
:100440000000200001002000810f70000100320038
:100450000f000700000020000000e0000200320052
:10046000000002000000000066070200000000001b
:100470000040da000000fe00200020000000e00044
:1004800002003200100020009001880000000600e9
:10049000a1028800800478000000eb001f003700f4
:1004a000e284440054a0b4009905ba00e2844400f8
:1004b00054a0b4009906ba00e284440054a0b400e9
:1004c0000006eb00476fde00fd07b200ae018800ba
:1004d000636ce10003003a000ad801000000eb0061
:1004e0000e003700606ce10008003a00004deb00a0
:1004f0000a05e800020039003420ec000af0a000f0
:100500008b05e900f9ff3e00040037006168e10057
:10051000010032000086eb000b00070019c7ba008b
:100520000e04e0001905ba0003003a000a00e000da
:10053000dbff3a0000000600fe07b200ae028800b2
:100540008a047800f5ff37000cd0a300e20f4d00bd
:100550001c00390089027800354dba000a05e80010
:10056000020039003420ec000af0a0008b05e900fd
:100570000f003200254dba000a05e80002003900dc
:100580003420ec000af0a0008b05e90008003200de
:100590000c00e0000600320015cdba000a05e800a4
:1005a000020039003420ec000af0a0008b05e900bd
:1005b0008984e80054a0b4000b00e000e2ff3a0098
:1005c000000006009902ba00055d78008b05e9007d
:1005d000f7ff3200c82ade00055d78008b05e900d0
:1005e000f3ff32000c00e000f1ff320019ddba0029
:1005f000eeff37003600f800809fbe00829fbe00ed
:10060000849fbe00869fbe000000fa00538ea800a3
:10061000138ea80013aea80013cea80013eea800f6
:10062000040ea80013e1a9000a21ef000108a900a7
:10063000306480000000e00008003200862cef00eb
:100640008e2cef00a62cef00ae2cef00c62cef0096
:10065000ce2cef000a21ef000d003700e02e200025
:1006600030648800e02e200070648800e02e2000b6
:1006700030658800e02e200070658800e02e2000a4
:1006800030668800e02e2000706688000a21ef00a6
:1006900069010700f13f2000008050008000eb005e
:1006a0008400070002a0280093682400d6000700f9
:1006b00002002c00f347240021000700620007001d
:1006c000000078007008880071088000504c2400f9
:1006d000808f500003003600504c240070088800c2
:1006e0000600370071088000701b2000808f5000ca
:1006f00002003e00801b200070088800538ea90075
:10070000138ea90013aea90013cea90013eea90001
:1007100013e1a800040ea9000080fa004f03be00f8
:100720004f02be004f01be004f00be003600f90070
:10073000004006000040da000000fe000000050056
:10074000889fbe008a9fbe008c1f7800960007001d
:100750009d00330003866c006450e1002e003200df
:100760006420e100330032006150e1002f003200cc
:100770006120e1003100320085855500eb07b000b3
:100780000900200008042000050037000804440088
:1007900089844c000a0031000603430087834b0024
:1007a0000001530081815b00f8ff33000203be00ab
:1007b0000800a0000804440089844c00f6ff3900ba
:1007c000c639dd00830173000100320013002000f0
:1007d0008904d1000884d3000998a30005003200e1
:1007e0000800a7000300a0008904d1000884d300fa
:1007f0008b05e8008904d1000884d3000001eb00d8
:100800000281d2002d00070001f0a1000cf0a7002a
:1008100001f0a000750037006420e100770032008d
:100820000801be000200be00f7ff37006120e100b2
:10083000720032006000b800f3ff370000002000b3
:1008400001f82700f0ff37000001be00410007005b
:100850000470a70003f0a10003f8a30013003a00fe
:100860006509b10010003200090035006928e10077
:1008700002003500010028000000050000004000d3
:10088000818048008502e900fcff3a000000060074
:10089000f88f4200050035008100d1000080d300b0
:1008a0008502e800fcff3a00000006008000eb0033
:1008b000000005006011b8008700370081002000ab
:1008c000618055000b003d000b00200061fe2f00f1
:1008d0000100e1001d0034008281710061016400ab
:1008e0008904d1000884d3000000e800faff3a0030
:1008f00071002000610064000300700002006000cd
:100900000900320061044400e0844c000988a5001d
:10091000050032008b05e8006808e10002003a009b
:100920008904d1000884d300f20f20000258e100ae
:1009300005003d00c75ddd00f907b2008980750044
:1009400008007800000006000bf827008b007800f4
:1009500000000500c70ade00f107b200f50fb20083
:1009600008003200e1cf4200020032000170a00016
:1009700024000500810f700001003200040805000a
:1009800044000500810f700002003a0014000500c9
:100990008502e9000000400081c04800fcff3b00e8
:1009a0000170a000240005000004be00e9ff07005c
:1009b0000003be000405be000200be00e5ff070004
:1009c000844f7500000006000200be006450e10084
:1009d000050036006420e100020036000968a3002b
:1009e00001003a000800be000160a0004f06780038
:1009f0004f05be004f04be0000000600f0ff2f00b0
:100a0000f1ff2700f9ff3700889fbe008a9fbe00d4
:100a10008c1f7800e4ff0700ebff330003866c00b7
:100a20006450e100240032006420e100270032001d
:100a30006150e100220032006120e100210032001b
:100a40008b854200eb07b1000134b800003ab800d2
:100a50000804420089844a00013ab8000030b80016
:100a60008880400009014a00040033000000400073
:100a700081804800020149008b05e900c909dd00b9
:100a8000830170000100320013002000c814de0052
:100a90004814dd004709de001200b200c808de007d
:100aa0000884700085ff070001f0a1000cf0a7008a
:100ab00001f0a000cdff37006120e100cfff320040
:100ac0000801be000200be00f7ff37006150e100e0
:100ad000fcff3a00c9ff3700889fbe008a9fbe0016
:100ae000008270000402710004827100260032004e
:100af0000004be000200be006011b8006b092000b7
:100b0000950220000182cf000a0039000541b100a2
:100b10000082cf00070039000541b1000982cf00f3
:100b2000040039000541b1000882cf0001003900fe
:100b30000541b10005425200120032000a003b009c
:100b400082817100610164008100d1000080d300c6
:100b50008984d3000884d3008b05e8000442e800b0
:100b6000f7ff3a00070037000804440089844c006e
:100b700000004800818048008b05e9000442e9003c
:100b8000f9ff3a004dff07004f05be004f04be00bd
:040b9000000006005b
:020000040000fa
:100b94000400fa00100798000000eb00000f780032
:100ba4000300370027000900000000001e0fe800c2
:100bb4009e0078001e009000808f5000f9ff3900dd
:100bc4000080fa00000006000000fa006e2eef001c
:100bd400707380007072880070728000f0718800f9
:100be400f07180007071880070718000f07088006e
:100bf400f0708000707088001eaea80040002000d5
:100c0400001988002223ef00f0002000201988003a
:100c14003223ef0050002000401988002623ef0003
:100c24002e23ef003023ef0021e3a8000080fa0018
:100c3400000006000000fa002023a90000000000c4
:100c440000198000610060000000e000fcff320039
:100c54002003a900001880000080fa0000000600ac
:100c64000000fa0001eca900c05d200020608800ab
:100c7400882cef00e02e200080648800401f2000b4
:100c840040658800204e200080658800803e20005a
:100c940040668800606d200080668800e02e200099
:100ca40030648800e02e200070648800e02e20006c
:100cb40030658800e02e200070658800e02e20005a
:100cc40030668800e02e200070668800ca2cef0091
:100cd400506680005065880050658000506488002c
:100ce400cc2cef0060668000606588006065800041
:100cf4006064880000c02c001066880010668000c4
:100d0400106588001065800010648800c02cef0016
:100d1400006680000065880000658000006488002b
:100d2400300020002066880020668000206588004e
:100d34002065800020648800100020003060880056
:100d44000160800000ff2f00008060000000a00010
:100d540000608800016ca8006009200040638800de
:100d6400b0042000506088006a2cef00900120003d
:100d74006063880000002c0010638800403020006d
:100d840000638800300020002063880020002000d9
:100d94001060880001eca8000080fa000000060042
:100da4000000fa0013e1a9001221a90012c1a90050
:100db4009108800000032000010070009008880062
:100dc4000a21ef002142800080ff2f000080600094
:100dd4000000a000204288000108a9002108a80002
:100de4000080fa00000006000000fa00100620004f
:100df400303a8800213a8000f0f32f000080600030
:100e0400203a8800213a800000fe2f000080600014
:100e14000000a000203a8800120020008007200073
:100e2400a1092000337420008049780081497800aa
:100e340082497800103a8000000178000200a00086
:100e4400600420007105200023742000804978008c
:100e5400814978008249780000000000113a80003e
:100e6400000027008080600000002100808f500077
:100e7400faff3a0000000000113a8000000220004e
:100e8400008060000000e000fbff32000080fa00f8
:100e9400000006000000fa00110ea800112ea800a0
:100ea400114ea800116ea900518ea900118ea9003f
:100eb40011aea90011cea90011eea900136ea9006c
:100ec4000080fa00000006000200fa000000eb00b7
:100ed400000f7800c4ff07003bff070060ff070016
:100ee400afff0700ebff0700000ea900040ea900e6
:100ef40013e1a900e02e200030648800e02e2000d9
:100f040070648800e02e200030658800e02e200008
:100f140070658800e02e200030668800e02e2000f6
:0c0f24007066880000000000feff37002f
:020000040000fa
:100f3000001000000400000080000000000000001d
:020000040000fa
:0200000401f009
:04000c0078ff000079
:020000040000fa
:0200000401f009
:040010007fff00006e
:00000001FF
